:100000000C9456000C9473000C9473000C947300C1
:100010000C9473000C9473000C9473000C94730094
:100020000C9473000C9473000C9473000C94820273
:100030000C9473000C9473000C9473000C94730074
:100040000C9473000C9473000C9473000C94730064
:100050000C9473000C9473000C9473000C94730054
:100060000C9473000C9473000C9473000C94730044
:100070000C9473000C9473000C9473000C94730034
:100080000C9473000C9473000C9473000C94730024
:100090000C9473000C9473000C9473000C94730014
:1000A0000C9473000C9473000C94730011241FBE05
:1000B000CFEFD5E0DEBFCDBF11E0A0E0B1E0EAE9CF
:1000C000F5E002C005900D92A233B107D9F711E017
:1000D000A2E3B1E001C01D92A13CB107E1F70E948B
:1000E000DE010C94CB020C940000882361F4E9EE4D
:1000F000F0E090819E7F908390819D7F908390819E
:100100009B7F90831CC0813061F4E9EEF0E0908128
:100110009160908390819D7F908390819B7F90835D
:100120001CC0823061F4E9EEF0E080818E7F808334
:1001300080818260808380818B7F8083089583307B
:1001400061F4E9EEF0E080818160808380818260EB
:10015000808380818B7F80830895843059F4E9EE19
:10016000F0E080818E7F808380818D7F808380819D
:10017000846080830895ECEEF0E080818064808369
:100180008081806880830895EDEEF0E080818F7B30
:1001900080838081806180838081806280830895F4
:1001A000EDEEF0E080818B7F80838081877F80838C
:1001B000089582B7806882BF82B78F7B82BF89B57E
:1001C0008F7E89BD89B5826089BD09B400FEFDCFEF
:1001D0000895CF93DF93E7EDF0E080818160808325
:1001E000C8EDD0E0888180618883E0EEF0E0808116
:1001F0008B7F80830E94D900888180688883888172
:100200008F7D8883DF91CF910895EF92FF920F93B6
:100210001F93CF93DF9381E00E947500CBEED0E077
:100220008881816088830E94BB000CEE10E0F80199
:100230008081816080830E94C4000E94D0000F2EC4
:10024000FDEEEF2EFF24F02DF70180818260808388
:1002500082E00E9475008881816088830E94BB00D3
:10026000F80180818E7F80830E94C4000E94D000AC
:10027000F70180818260808383E00E94750088811D
:10028000816088830E94BB00F80180818160808347
:100290000E94C4000E94D000F701808182608083A8
:1002A00084E00E9475008881816088830E94BB0081
:1002B000F80180818E7F80830E94C4000E94D0005C
:1002C000F701808182608083DF91CF911F910F9130
:1002D000FF90EF900895E0EFF0E0808180618083EF
:1002E0008081806480838081886080838081846055
:1002F00080838081816080830895E8EEF0E08081D2
:10030000807480838081882349F081E090E090931D
:1003100034018093330180818F7B8083E8EEF0E0AD
:100320008081807180838081882349F082E090E021
:10033000909334018093330180818F7E8083E8EE37
:10034000F0E08081887080838081882331F083E0B1
:1003500090E09093340180933301E8EEF0E08081E7
:10036000847080838081882349F084E090E09093BA
:1003700034018093330180818B7F8083E8EEF0E04D
:100380008081817080838081882349F085E090E0BE
:10039000909334018093330180818E7F8083089510
:1003A000E8EEF0E0808180FFFDCFE8EEF0E08081B4
:1003B0008E7F808380818F77808308951F93CF9372
:1003C000DF930E94E9000E946B01E0EEF0E0808183
:1003D0008E7F80837894A1EFB0E04EE751E0E8EEA5
:1003E000F0E02BE331E080913301909134018330D0
:1003F000910579F08330910540F08430910509F43E
:1004000049C08530910599F75FC010923401109270
:100410003301E0EFF0E080818F7E808380818F7BED
:10042000808380818B7F808380818E7F8083E1EFDA
:10043000F0E080818093370180818093C0019081BA
:100440009093BF01908190937B01908190933601AE
:10045000908190933A01908190933501908190938F
:100460007D01E8EEF0E09081977F9083882311F082
:10047000853051F48091BF01C3EED0E088830E94A3
:10048000D001888180688883E8EEF0E080818B7FEE
:100490008083FFCFC2EFD0E0788170933901109252
:1004A0007C0160E01C91CA01860F911DEC0118834C
:1004B0006F5F60937C017617A8F780818F778083C8
:1004C00010923401109233018091BE018093380163
:1004D00010927C0180E0B901680F711DEB018881E9
:1004E0008C9380917C018F5F80937C019091380187
:1004F000981788F780818F7780831092340110924B
:10050000330171CF1F920F920FB60F9211242F93C8
:100510003F934F935F936F937F938F939F93AF938B
:10052000BF93EF93FF93E4EFF0E0808181708083CD
:100530008081882329F080E00E9475000E947D015F
:10054000E4EFF0E08081827080838081882329F04D
:1005500081E00E9475000E947D01E4EFF0E080815F
:10056000847080838081882329F082E00E94750056
:100570000E947D01FF91EF91BF91AF919F918F916B
:100580007F916F915F914F913F912F910F900FBE8F
:0A0590000F901F901895F894FFCF0C
:10059A001201020000000040C251170201000420AB
:1005AA00420109022001010080FA0904000002FF49
:1005BA00FFFF000705810300400207050103004011
:0205CA0002002D
:00000001FF
