:100000000C94A7000C94CF000C94CF000C94CF005C
:100010000C94CF000C94CF000C94CF000C94CF0024
:100020000C94CF000C94CF000C9438030C94CF00A8
:100030000C94CF000C94CF000C94CF000C94CF0004
:100040000C94CF000C94CF000C94CF000C94CF00F4
:100050000C94CF000C94CF000C94CF000C94CF00E4
:100060000C94CF000C94CF000C94CF000C94CF00D4
:100070000C94CF000C94CF000C94CF000C94CF00C4
:100080000C94CF000C94CF000C94CF000C94CF00B4
:100090000C94CF000C94CF000C94CF000C94CF00A4
:1000A0000C94CF000C94CF000C94CF0012010002EE
:1000B00000000020EB0316200010010200010902DD
:1000C000290001010080DC09040000020300000097
:1000D00009211101000122350007058103400001BB
:1000E000070502034000010C034D004D0053005969
:1000F00000530022034D004D0020005300590053CF
:1001000000540045004D0053002000500052004FA5
:1001100000470020000403090406FFFF0901A101B4
:1001200009020903150026FF0075089540810209A0
:10013000040905150026FF0075089540910209067F
:100140000907150026FF0075089504B102C01124A7
:100150001FBECFEFDAE0DEBFCDBF80E090E020E849
:100160000FB6F89420936100809361000FBE81E088
:1001700011E0A0E0B1E0ECEDF1E102C005900D92DC
:10018000A430B107D9F711E0A4E0B1E001C01D929D
:10019000A33AB107E1F70E94D1000C94EC080C944B
:1001A0000000E7EDF0E08081816080830E943204EE
:1001B00080E090E020E80FB6F894209361008093EF
:1001C00061000FBE0E941F0480E090E008950F932D
:1001D0001F93DF93CF9300D0CDB7DEB78091E800B7
:1001E0008B7F8093E8001091F1000091F1000630C0
:1001F000F9F0073068F4013009F409C1013008F45E
:1002000073C1033009F437C1053009F0E9C1C8C032
:10021000093009F4E5C00A3020F4083009F0E0C1E3
:100220009AC00A3009F495C10B3009F0D9C1B5C1A3
:10023000103809F0D5C16091F1008091F100813052
:1002400019F0823089F406C082E180931A018CEAA9
:1002500090E005C089E280931A018EEB90E09093C4
:100260001C0180931B0105C00E948605882309F4A8
:10027000B7C18091F1008091F1008091F1008983F4
:100280008091F1008A838091E800877F8093E80065
:1002900089819A8140911A01242F30E0281739076B
:1002A00018F44F7129F002C080931A0130E001C0A8
:1002B00031E08091E8008F7E28C08091E80084FDC5
:1002C00004C08091E80080FFF8CF20E013C0203206
:1002D000A9F02F5FE0911B01F0911C01CF01019665
:1002E00090931C0180931B01E491E093F100415035
:1002F00040931A0140911A01442349F78091E80084
:1003000084FD0DC08091E8008E7F8093E80080918D
:100310001A01882321F08091E80084FFD2CF313088
:1003200069F48091E80084FD09C08091E80080FFB5
:10033000FCCF8091E8008E7F8093E8008091E800F8
:1003400084FFFCCF8091E8008F7E8093E80080914D
:10035000E8008B7F22C0103809F042C18091E8008C
:10036000877F8093E800809119018093F10080914C
:10037000E8008E7F8093E8008091E8008F7780937B
:10038000E8008091E80082FFFCCF8091E8008B7F3D
:100390008093E8008091E8008F778093E80037C170
:1003A000112309F01DC18091F1009091E3008F7736
:1003B0009078892B8093E3008091E800877F809379
:1003C000E8008091E8008E7F8093E8008091E8004B
:1003D00080FFFCCF8091E30080688093E30017C129
:1003E000112309F0FDC08091F100823008F0F8C0BF
:1003F0009091E800977F9093E80080931901909185
:10040000E8009E7F9093E8000E944B0500C11123F5
:10041000C1F1123009F0E4C08091F1009091F10037
:10042000882309F0DDC0E091F100EF77E093E90067
:100430008091EB0080FFE8C0EE23B1F08091EB00EB
:1004400080618093EB0081E090E00E2E02C0880F67
:10045000991F0A94E2F78093EA001092EA008091D3
:10046000EB0088608093EB001092E900F0E0EE5E14
:10047000FE4F108230C0112321F0123009F0B0C0BD
:1004800003C08091F100ACC08091F1009091F10027
:10049000882309F0A5C0E091F100EF7751F4809135
:1004A000EB0080628093EB008091E800877F80936F
:1004B000E800E093E9008091EB0080FFA5C0809107
:1004C000EB0080628093EB001092E900F0E0EE5EBA
:1004D000FE4F81E080838091E800877F8093E80071
:1004E0008091E8008E7F59CF8091F1008091F100DA
:1004F000E091F100113869F0123899F0103809F0E4
:100500006FC08091E800877F8093E80080910501AB
:1005100012C08091E800877F8093E8001092F1007C
:100520000CC08091E800877F8093E800EF77F0E0CF
:10053000EE5EFE4F80818093F1001092F100809179
:10054000E8008E7F8093E8008091E80082FFFCCF76
:100550001CCF113809F044C08091F1008091F10066
:100560009091F10099839091F1009A838823C1F5CD
:100570008091E800877F8093E80089819A810E94BA
:100580005E058093F1008091E8008E7F8093E80003
:100590008091E80082FFFCCFF8CE113009F5609120
:1005A000F1008091F1009091F10099839091F10018
:1005B0009A838823A9F48091E800877F8093E800DC
:1005C00089819A810E9460051092E9008091E8007B
:1005D0008E7F8093E8008091E80080FFFCCF17C0F9
:1005E000812F602F0E942407882389F48091EB00DB
:1005F00080628093EB008091E800877F8093E80021
:1006000081E08093120103C01092E900E9CF0F90BE
:100610000F90CF91DF911F910F91089509B400FCC5
:100620000BC082B7807F82BF82B78A6482BF82E1BB
:1006300089BD09B400FEFDCF8091D8008F7D8093E5
:10064000D80080910401813039F48091E00082600B
:100650008093E000109204010895E7EDF0E08081BE
:10066000816080830E94560408950E949104089539
:100670001F920F920FB60F9211242F933F934F9317
:100680005F936F937F938F939F93AF93BF93EF93FA
:10069000FF938091E10082FF09C08091E20082FF18
:1006A00005C08BEF8093E1000E94C9078091E100B3
:1006B00080FF29C08091E20080FF25C081E0809307
:1006C00009018FEE8093E10080910601909107016E
:1006D000806290930701809306018EEF8093E10082
:1006E0008091E20080618093E2008091E2008F7D42
:1006F0008093E2008091D80080628093D80089B511
:100700008D7F89BD19BC8091E10084FF47C0809135
:10071000E20084FF43C009B400FC0BC082B7807FB5
:1007200082BF82B78A6482BF82E189BD09B400FEBC
:10073000FDCF8091D8008F7D8093D8009FEE90935D
:10074000E10080910901882349F18091E2008062F3
:100750008093E2008091E20088608093E2009093B1
:10076000E1008091E2008F7E8093E200809106019B
:100770009091070180649093070180930601809116
:10078000E20081608093E2008091E20080628093C9
:10079000E2008091E20088608093E2008091E100B5
:1007A00085FF1CC08091E20085FF18C010920901EE
:1007B0008091E2008F7E8093E2008FED8093E100D4
:1007C0008091E2008F7D8093E200809106019091FC
:1007D0000701806890930701809306018091E100F2
:1007E00083FF12C08091E20083FF0EC087EF8093E9
:1007F000E1000E943C058091060190910701916003
:100800009093070180930601FF91EF91BF91AF9103
:100810009F918F917F916F915F914F913F912F9118
:100820000F900FBE0F901F9018950E942D030E94ED
:10083000A60708950E9435030E94CD08FBCF0E94B1
:1008400015040E941A040895089585E59AEAAAEA13
:10085000B5E58093A3019093A401A093A501B09363
:10086000A601FFCF8091A3019091A401A091A501C1
:10087000B091A60185352AEA92072AEAA20725E562
:10088000B20769F41092A3011092A4011092A5017D
:100890001092A601E0910001F091010109950895DF
:1008A000E0910001F091010109950895E8EDF0E073
:1008B00080818F7780838081806880838081806160
:1008C0008083789408958091D80080628093D800C6
:1008D00082B7807F82BF82B78A6482BF82E189BD8E
:1008E00009B400FEFDCFF8948091D8008F7D8093ED
:1008F000D8008091E0008E7F8093E0008091E0003E
:10090000877F8093E0000E943C058091E200816037
:100910008093E2008091E20088608093E200789406
:1009200008958091D90080FF1CC080910801882320
:10093000C1F481E080930801809106019091070144
:10094000826090930701809306018091D8008068AF
:100950008093D8000E9463048091E0008E7F809392
:10096000E0008091D90080FD18C036C010920801C7
:100970001092190180910601909107018460909373
:100980000701809306018091E00081608093E00080
:100990008091D80080628093D80080910601909168
:1009A000070190FF10C080910601909107019E7F82
:1009B000909307018093060181E08093EA001092F2
:1009C000EA00109219011092E9008091E80083FF7B
:1009D00008C00E94E7000895809108018130E9F67F
:1009E000C5CF0895EBEEF0E0908191609083809305
:1009F000EC00EDEEF0E080818270682B60838081F6
:100A0000826080838091EE00881F8827881F089568
:100A10009091F40080E090FD06C08F5F873011F068
:100A20009695F9CF80E00895FB018093E900842F2B
:100A300004C091919093F10081509091E80095FF4E
:100A400002C08823B1F70895FB018093E900842F49
:100A500004C09091F100919381509091E80095FF2E
:100A600002C08823B1F708958093E900EBEEF0E02F
:100A700080818062808308951092E9008091EB006C
:100A800080FF02C080E008951092E90082E060E2F9
:100A90000E94F2040895CF93DF93C9EED0E081E085
:100AA000888381EC60E30E94F20482E0888380EC1A
:100AB00060E30E94F204DF91CF91089580E00895F1
:100AC000009719F581E08093E9008091EB00806147
:100AD0008093EB0092E09093EA001092EA008091FC
:100AE000EB0088608093EB009093E9008091EB002D
:100AF00080618093EB0084E08093EA001092EA002A
:100B00008091EB0088608093EB0008958330F1F4CE
:100B1000613059F0613018F06230D1F40CC084E0DB
:100B200080931A0185E191E00BC08CE080931A015B
:100B300087EE90E005C082E280931A0183EF90E097
:100B400090931C0180931B0181E0089580E008953B
:100B500080E00895DF93CF9300D000D0CDB7DEB70B
:100B60008091F1008B838091F1008C8385E38093E9
:100B70001A0189E191E090931C0180931B018091FF
:100B8000F10089838091F1008A838091E800877F5A
:100B90008093E80089819A818633910528F58093B6
:100BA0001A0122C08091E80080FFFCCF20E013C032
:100BB0002032A9F02F5FE0911B01F0911C01CF01C1
:100BC000019690931C0180931B01E491E093F10046
:100BD000315030931A0130911A01332349F7809133
:100BE000E8008E7F8093E80080911A01882321F02D
:100BF0008091E80082FFD6CF8091E80082FFFCCF91
:100C00008091E8008B7F8093E8008091E8008F77E7
:100C10008093E8000F900F900F900F90CF91DF918D
:100C200008958091E800877F8093E8008091E80034
:100C30008E7F8093E8008091E80082FFFCCF809156
:100C4000E8008B7F8093E8008091E8008F778093A5
:100C5000E8008091E8008E7F8093E8000895DF939C
:100C6000CF9300D0CDB7DEB78091F100898380911A
:100C7000F1008A838091E800877F8093E800609389
:100C80000B018091E8008E7F8093E8008091E8005E
:100C900080FFFCCF0F900F90CF91DF910895DF93ED
:100CA000CF9300D000D0CDB7DEB78091F1008B8319
:100CB0008091F1008C838091F10089838091F10013
:100CC0008A838091E800877F8093E80089819A81F8
:100CD000009749F080910B018093F1008091E8002A
:100CE0008E7F8093E8008091E80082FFFCCF8091A6
:100CF000E8008B7F8093E8008091E8008F778093F5
:100D0000E8000F900F900F900F90CF91DF91089512
:100D10008091E800877F8093E8008091E8008E7FD3
:100D20008093E8008091E80082FFFCCF8091F10081
:100D3000853579F48091F1008A3A59F48091F10077
:100D4000853539F48091F1008A3A19F481E0809375
:100D50000A018091E8008B7F8093E8008091E80091
:100D60008F778093E8008091E8008E7F8093E80081
:100D70008091E80080FFFCCF0895DF93CF9300D0EF
:100D800000D0CDB7DEB78091F1008B838091F10068
:100D90008C8389E080931A0180ED90E090931C0190
:100DA00080931B018091F10089838091F1008A83F7
:100DB0008091E800877F8093E80089819A818A305A
:100DC000910528F580931A0122C08091E80080FFE8
:100DD000FCCF20E013C02032A9F02F5FE0911B016F
:100DE000F0911C01CF01019690931C0180931B018F
:100DF000E491E093F100315030931A0130911A01DF
:100E0000332349F78091E8008E7F8093E80080913A
:100E10001A01882321F08091E80082FFD6CF8091CB
:100E2000E80082FFFCCF8091E8008B7F8093E80090
:100E30008091E8008F778093E8000F900F900F90DB
:100E40000F90CF91DF910895282F8091F10090911C
:100E5000F100213869F4663049F5913219F0923287
:100E600029F503C00E94BD0618C00E94AA0515C03E
:100E70002132A9F4693019F06A30C1F40BC0923004
:100E800019F0933099F403C00E94110606C00E9425
:100E9000880603C0692F0E942F0681E00895213A39
:100EA00029F4623029F40E944F06F7CF80E00895BC
:100EB00080E0089513BE83B7856083BF8895089549
:100EC00013BE83B7816083BF8895089513BE83B72F
:100ED000836083BF8895089513BE83B7876083BFFF
:100EE0008895089513BE83B78D6083BF8895089554
:100EF00013BE83B78F6083BF889508958091C50026
:100F000084608093C5008091C70080FFFCCF8091F2
:100F1000C50081608093C5008091C500877F809364
:100F2000C50008958091C50088608093C5008091B8
:100F3000C70081FFFCCF8091C5008E7F8093C500E4
:100F40008091C5008B7F8093C50008958AB183602E
:100F50008AB987E084B9E4E6F0E080818B7F808302
:100F60008CB580618CBD8CB582608CBD8CB5816088
:100F70008CBD8CB58E7F8CBD8CB584608CBD8CB5E2
:100F800080648CBD1092110110921001589A599AE8
:100F9000089580915E018F5F80935E010895813096
:100FA00021F0823011F0833039F48CB58D7F8CBD07
:100FB0008CB58E7F8CBD0895843031F48CB58D7FD7
:100FC0008CBD8CB58E7F8CBD08958CB583708F5F82
:100FD00008958091F20080931D0110920F010AC0C4
:100FE0009091F100E82FF0E0E05AFE4F90838F5F80
:100FF00080930F0180910F01803490F3089521E0D8
:1010000030E080911D01863010F420E030E0C9010D
:101010000895DF93CF9300D000D0CDB7DEB782E044
:101020008093E9008091E80082FF2BC0809102014B
:101030008E7F809302010E94E9070E94FF070097BC
:1010400089F480916001813069F48091610185307B
:1010500019F486E090E002C084E090E090931101E2
:101060008093100180910201816080930201809140
:10107000E8008B7F8093E8008091E8008F77809371
:10108000E80080910A01882319F18091E0008160D5
:101090008093E00019821A821B821C820BC0898116
:1010A0009A81AB81BC810196A11DB11D89839A8370
:1010B000AB83BC8389819A81AB81BC81803721E17C
:1010C000920721E0A20720E0B20748F30E9425041E
:1010D0000F900F900F900F90CF91DF910895809116
:1010E000020180FF02C0846001C08B7F80930201F7
:1010F000809102018B7F8093020108958093020109
:10110000089580E108958093F1006093F100409389
:10111000F1002093F10080E18093F10085E003C0AD
:101120001092F1008F5F80930F0180910F01803446
:10113000B8F3089581E08093E9008091E80085FF8D
:101140002BC080911001909111018430910559F0CC
:1011500086309105B9F4809163010E94CF07809198
:101160006401809302010E94E507482F81E065E059
:10117000209102010E94830885E090E09093110184
:10118000809310018091E8008E7F8093E800809129
:10119000E8008F778093E8000895809119018823F3
:1011A00021F00E9409080E949A0808950FD0F72F95
:1011B000E62F41E247BFC895802D08C007D0F72F22
:1011C000E62F49E047BFC895802D00C0022E27B703
:0C11D00020FDFCCF202D0895F894FFCFE7
:0411DC0000380100D6
:00000001FF
