:10000000A6C00000CAC00000C8C00000C6C00000F2
:10001000C4C00000C2C00000C0C00000BEC00000DC
:10002000BCC00000BAC0000026C30000B6C000007B
:10003000B4C00000B2C00000B0C00000AEC00000FC
:10004000ACC00000AAC00000A8C00000A6C000000C
:10005000A4C00000A2C00000A0C000009EC000001C
:100060009CC000009AC0000098C0000096C000002C
:1000700094C0000092C0000090C000008EC000003C
:100080008CC000008AC0000088C0000086C000004C
:1000900084C0000082C0000080C000007EC000005C
:1000A0007CC000007AC0000078C00000120100028D
:1000B00000000020EB0316200010010200010902DD
:1000C000290001010080DC09040000020300000097
:1000D00009211101000122350007058103400001BB
:1000E000070502034000010C034D004D0053005969
:1000F00000530022034D004D0020005300590053CF
:1001000000540045004D0053002000500052004FA5
:1001100000470020000403090406FFFF0901A101B4
:1001200009020903150026FF0075089540810209A0
:10013000040905150026FF0075089540910209067F
:100140000907150026FF0075089504B102C01124A7
:100150001FBECFEFDAE0DEBFCDBF80E090E020E849
:100160000FB6F89420936100809361000FBE81E088
:1001700011E0A0E0B1E0E8EDFFE002C005900D92D3
:10018000A230B107D9F711E0A2E0B1E001C01D92A1
:10019000AB37B107E1F72CD01DC732CF8FB7F8943A
:1001A00097EF94BF98E10FB6F89490936000109287
:1001B00060000FBE87FF01C078940895982F3FB765
:1001C000F89487EF84BF93FD02C028E001C028E2C5
:1001D0009770292B88E190E00FB6F894A89580934A
:1001E00060000FBE2093600037FF01C0789408952F
:1001F000E7EDF0E0808181608083D0DF26D380E06E
:1002000090E020E80FB6F89420936100809361009D
:100210000FBE19D380E090E008950F931F93DF93F2
:10022000CF9300D0CDB7DEB78091E8008B7F80936D
:10023000E8001091F1000091F1000630F9F007306C
:1002400068F4013009F413C1013008F480C10330AF
:1002500009F441C1053009F0F5C1D2C0093009F4F3
:10026000EFC00A3020F4083009F0ECC1A4C00A3015
:1002700009F4A3C10B3009F0E5C1C2C1103809F07F
:10028000E1C16091F1008091F100813019F082307C
:1002900089F406C082E1809315018CEA90E005C0E4
:1002A00089E2809315018EEB90E090931701809383
:1002B000160104C0D9D3882309F4C4C18091F10088
:1002C0008091F1008091F10089838091F1008A830F
:1002D0008091E800877F8093E80029813A818091AE
:1002E000150190E08217930730F48F719070892B7D
:1002F00021F461E003C02093150160E08091E800E3
:100300008F7E8093E8002091160130911701409173
:10031000150122C08091E80084FF03C0F90190E03C
:100320000FC08091E80080FFF5CFF8CF542F5150D7
:10033000903249F09F5F84918093F1003196452F70
:100340009F01442399F78091E80084FD12C08091B9
:10035000E8008E7F8093E800442339F4209316014F
:1003600030931701109215010AC08091E80084FFB4
:10037000D8CF2093160130931701409315016130B7
:1003800069F48091E80084FD09C08091E80080FF55
:10039000FCCF8091E8008E7F8093E8008091E80098
:1003A00084FFFCCF8091E8008F7E8093E8008091ED
:1003B000E8008B7F22C0103809F044C18091E8002A
:1003C000877F8093E800809114018093F1008091F1
:1003D000E8008E7F8093E8008091E8008F7780931B
:1003E000E8008091E80082FFFCCF8091E8008B7FDD
:1003F0008093E8008091E8008F778093E80034C113
:10040000112309F01FC19091F1008091E3009F77C3
:100410008078982B9093E3008091E800877F809309
:10042000E8008091E8008E7F8093E8008091E800EA
:1004300080FFFCCF8091E30080688093E30014C1CB
:10044000112309F0FFC09091F100923008F0FAC03A
:100450008091E800877F8093E80090931401809159
:10046000E8008E7F8093E800892FD7D4FDC0112348
:10047000C1F1123009F0E6C08091F1009091F100D5
:10048000882309F0DFC0E091F100EF77E093E90005
:100490008091EB0080FF43C0EE23B1F08091EB0030
:1004A00080618093EB0081E090E00E2E02C0880F07
:1004B000991F0A94E2F78093EA001092EA00809173
:1004C000EB0088608093EB001092E900F0E0E35FBE
:1004D000FE4F108233C0112321F0123009F0B2C058
:1004E00003C08091F100AEC08091F1009091F100C5
:1004F000882309F0A7C0E091F100EF7751F48091D3
:10050000EB0080628093EB008091E800877F80930E
:10051000E800E093E9008091EB0080FD03C01092B9
:10052000E90090C08091EB0080628093EB00109214
:10053000E900F0E0E35FFE4F81E080838091E80016
:10054000877F8093E8008091E8008E7F56CF80916E
:10055000F1008091F100E091F100113869F012385A
:1005600099F0103809F06EC08091E800877F809381
:10057000E8008091030113C08091E800877F809399
:10058000E8001092F1000DC08091E800877F809311
:10059000E800F0E0EF77F070E35FFE4F808180933A
:1005A000F1001092F1008091E8008E7F8093E800C6
:1005B0008091E80082FFFCCF18CF113809F042C0CB
:1005C0008091F1008091F1009091F10099839091D8
:1005D000F1009A838823B1F58091E800877F8093AA
:1005E000E80089819A8118D28093F1008091E80017
:1005F0008E7F8093E8008091E80082FFFCCFF5CEEB
:10060000113001F56091F1008091F1009091F100BD
:1006100099839091F1009A838823A1F48091E80056
:10062000877F8093E80089819A81F8D11092E90050
:100630008091E8008E7F8093E8008091E80080FF41
:10064000FCCF12C0812F602FB9D3882369F4809129
:10065000EB0080628093EB008091E800877F8093BD
:10066000E80081E080930D010F900F90CF91DF9112
:100670001F910F9108951F920F920FB60F921124A0
:100680002F933F934F935F936F937F938F939F939A
:10069000AF93BF93EF93FF938091E10082FF08C077
:1006A0008091E20082FF04C08BEF8093E1000ED4C2
:1006B0008091E10080FF29C08091E20080FF25C089
:1006C00081E0809307018FEE8093E1008091040127
:1006D00090910501806290930501809304018EEF53
:1006E0008093E1008091E20080618093E20080913C
:1006F000E2008F7D8093E2008091D8008062809339
:10070000D80089B58D7F89BD19BC8091E10084FF37
:1007100047C08091E20084FF43C009B400FC0BC0D5
:1007200082B7807F82BF82B78A6482BF82E189BD3F
:1007300009B400FEFDCF8091D8008F7D8093D80052
:100740009FEE9093E10080910701882349F1809109
:10075000E20080628093E2008091E20088608093F2
:10076000E2009093E1008091E2008F7E8093E200AE
:10077000809104019091050180649093050180931C
:1007800004018091E20081608093E2008091E200A8
:1007900080628093E2008091E20088608093E200B2
:1007A0008091E10085FF1CC08091E20085FF18C0A8
:1007B000109207018091E2008F7E8093E2008FED1E
:1007C0008093E1008091E2008F7D8093E200809130
:1007D00004019091050180689093050180930401C4
:1007E0008091E10083FF11C08091E20083FF0DC082
:1007F00087EF8093E10003D180910401909105017E
:1008000091609093050180930401FF91EF91BF9156
:10081000AF919F918F917F916F915F914F913F9198
:100820002F910F900FBE0F901F90189572C00895D2
:10083000E7EDF0E080818160808331C0F7DFC3D3D2
:10084000FDCFF6DFFDC2FDDFF9CF80917B019091F6
:100850007C01A0917D01B0917E0185559A4AAA4AFA
:10086000B54569F410927B0110927C0110927D01D4
:1008700010927E01E0910001F09101010995089527
:1008800085E59AEAAAEAB5E580937B0190937C011D
:10089000A0937D01B0937E0185E090DCFFCFE8ED71
:1008A000F0E080818F778083808180688083808181
:1008B00080618083789408958091D80080628093CD
:1008C000D80082B7807F82BF82B78A6482BF82E10C
:1008D00089BD09B400FEFDCFF8948091D8008F7DCA
:1008E0008093D8008091E0008E7F8093E00080911B
:1008F000E000877F8093E00082D08091E2008160F9
:100900008093E2008091E20088608093E200789416
:1009100008958091D90080FF1BC080910601882333
:10092000B9F481E080930601809104019091050162
:10093000826090930501809304018091D8008068C3
:100940008093D800B9DF8091E0008E7F8093E00033
:100950008091D90080FD18C034C010920601109219
:100960001401809104019091050184609093050128
:10097000809304018091E00081608093E000809189
:10098000D80080628093D800809104019091050185
:1009900090FF10C080910401909105019E7F90937B
:1009A00005018093040181E08093EA001092EA003F
:1009B000109214011092E9008091E80083FF06C0B4
:1009C0002CCC809106018130F9F6C7CF0895909123
:1009D000EB0091609093EB008093EC008091ED0030
:1009E0008270862B8093ED008091ED008260809371
:1009F000ED008091EE00881F8827881F08951092CF
:100A0000E9008091EB0080FF02C080E00895109221
:100A1000E90082E060E2DBCF80E00895892B19F5E0
:100A200081E08093E9008091EB0080618093EB008E
:100A300092E09093EA001092EA008091EB008860C7
:100A40008093EB009093E9008091EB0080618093AC
:100A5000EB0084E08093EA001092EA008091EB00C2
:100A600088608093EB0008958330F1F4613059F091
:100A7000613018F06230C1F40CC084E0809315013D
:100A800085E191E00BC08CE08093150187EE90E04A
:100A900005C082E28093150183EF90E090931701E7
:100AA0008093160181E0089580E00895DF93CF934D
:100AB00000D000D0CDB7DEB78091F1008B8380915C
:100AC000F1008C8385E38093150189E191E0909397
:100AD0001701809316018091F10089838091F100C4
:100AE0008A838091E800877F8093E80089819A81DA
:100AF0008633910528F04091150129E131E01CC0B1
:100B000080931501F8CF8091E80080FFFCCFF901B8
:100B100090E00AC0542F5150903249F09F5F849169
:100B20008093F1003196452F9F01442399F78091DE
:100B3000E8008E7F8093E800442359F08091E8001C
:100B400082FFE1CF309317012093160140931501E6
:100B500006C0309317012093160110921501809161
:100B6000E80082FFFCCF8091E8008B7F8093E80053
:100B70008091E8008F778093E8000F900F900F909E
:100B80000F90CF91DF9108958091E800877F809347
:100B9000E8008091E8008E7F8093E8008091E80073
:100BA00082FFFCCF8091E8008B7F8093E8008091EA
:100BB000E8008F778093E8008091E8008E7F809333
:100BC000E8000895DF93CF9300D0CDB7DEB78091D2
:100BD000F10089838091F1008A838091E800877F0A
:100BE0008093E800609309018091E8008E7F8093F4
:100BF000E8008091E80080FFFCCF0F900F90CF912C
:100C0000DF910895DF93CF9300D000D0CDB7DEB74A
:100C10008091F1008B838091F1008C838091F100B1
:100C200089838091F1008A838091E800877F809397
:100C3000E80089819A81892B49F08091090180938C
:100C4000F1008091E8008E7F8093E8008091E800B9
:100C500082FFFCCF8091E8008B7F8093E800809139
:100C6000E8008F778093E8000F900F900F900F901F
:100C7000CF91DF9108958091E800877F8093E8000D
:100C80008091E8008E7F8093E8008091E80082FFE9
:100C9000FCCF8091F100853579F48091F1008A3A9A
:100CA00059F48091F100853539F48091F1008A3A48
:100CB00019F481E0809308018091E8008B7F809394
:100CC000E8008091E8008F778093E8008091E80049
:100CD0008E7F8093E8008091E80080FFFCCF08952C
:100CE000DF93CF9300D000D0CDB7DEB78091F10075
:100CF0008B838091F1008C8389E08093150180EDD6
:100D000090E090931701809316018091F100898300
:100D10008091F1008A838091E800877F8093E800CA
:100D200089819A818A30910528F04091150120ED42
:100D300030E01CC080931501F8CF8091E80080FF5F
:100D4000FCCFF90190E00AC0542F5150903249F085
:100D50009F5F84918093F1003196452F9F0144233A
:100D600099F78091E8008E7F8093E800442359F042
:100D70008091E80082FFE1CF3093170120931601A4
:100D80004093150106C0309317012093160110926D
:100D900015018091E80082FFFCCF8091E8008B7FF5
:100DA0008093E8008091E8008F778093E8000F90AF
:100DB0000F900F900F90CF91DF9108952091F10047
:100DC0009091F100813859F4663029F5913219F08B
:100DD000923209F502C084DF1CC068DE1AC081327D
:100DE00091F4693019F06A30B1F409C0923019F009
:100DF000933089F402C0C8DE0CC03DDF0AC0822FE8
:100E0000692FE0DE06C0813A31F4623021F4822F8E
:100E1000F9DE81E0089580E008950F931F9309EEB5
:100E200010E081E0F801808381EC60E3D0DD82E0B6
:100E3000F801808380EC60E3CADD1F910F91089573
:100E40008AB183608AB987E084B9E4E6F0E0808102
:100E50008B7F80838CB580648CBD8CB580618CBDAC
:100E60008CB582608CBD8CB581608CBD8CB5846086
:100E70008CBD8BB183608BB95898089581E08093C5
:100E8000E9008091E80085FF20C080910C0181304D
:100E9000E1F4599890E008C0E92FF0E0E85EFE4FD9
:100EA00080818093F1009F5F9233B0F3909349016A
:100EB00010920C018091E8008E7F8093E800809171
:100EC000E8008F778093E800599A089580910A018D
:100ED0008F5F80930A010895DF93CF9300D000D0F5
:100EE000CDB7DEB782E08093E9008091E80082FF11
:100EF0003DC0599890E008C08091F100E92FF0E0E2
:100F0000E65BFE4F80839F5F9233B0F3289888ECB6
:100F100090E020E931E0F9013197F1F70197D9F735
:100F20001092490190E00FC0A92FB0E0FD01E65BEF
:100F3000FE4F80818EBD0DB407FEFDCF8EB5A85E3D
:100F4000BE4F8C939F5F923378F39093490181E079
:100F500080930C01289A599A8091E8008B7F8093A6
:100F6000E8008091E8008F778093E8008091080185
:100F7000882311F18BB183608BB98091E00081608F
:100F80008093E00019821A821B821C820BC0898127
:100F90009A81AB81BC810196A11DB11D89839A8381
:100FA000AB83BC8389819A81AB81BC81805791419D
:100FB000A140B04060F364DC0F900F900F900F9051
:100FC000CF91DF91089580911401882311F084DF7F
:080FD00055CF0895F894FFCFFE
:020FD8000038DF
:00000001FF
